:0300000002079C58
:0C079C00787FE4F6D8FD75813D0207E38C
:10059E000A312E436F6B652053656C656374656419
:1005AE00202E2E5061792077697468696E20312073
:1005BE007365632E2E707265737350325F362074BE
:1005CE006F2070617920000A436F6B6520426F7552
:1005DE0067687420212121000A4E6F7420417661D4
:1005EE00696C61626C65202E2E2E53746F636B20C6
:1005FE0046696E697368656420212121000A416293
:10060E006F7274656420212121000A312E506570AD
:10061E0073692053656C6563746564202E2E50617A
:10062E00792077697468696E2031207365632E2E88
:10063E002E707265737350325F3620746F20706146
:10064E0079000A506570736920426F75676874206F
:10065E00212121000A312E4D6972616E6461205391
:10066E00656C6563746564202E2E50617920776900
:10067E007468696E2031207365632E2E70726573F7
:10068E007350325F3620746F2070617920000A4DEE
:10069E006972616E646120426F75676874202121F2
:1006AE0021000A436F6B6520536F6C643A256420FA
:1006BE004561726E65643A2564000A50657073690F
:1006CE0020536F6C643A2564204561726E65643AFE
:1006DE002564000A4D6972616E646120536F6C640B
:0E06EE003A2564204561726E65643A25640009
:030860000108008C
:10084F00438901758CAF758A3CC28DD28C308DFD7A
:01085F002276
:10035F00752400752504752600752703752800750B
:10036F002905759850758920758DDDD28E8508A069
:10037F00E4F522F52312084F0523E5237002052229
:10038F00C39464E5226480948040EAE5A0607BD248
:10039F00997BFF7A05799E1200653099FDE4F5226D
:1003AF00F52312084F0523E52370020522C3946439
:1003BF00E5226480948040EAE5A0603BD3E5259474
:1003CF0000E52464809480401BE5251525700215F7
:1003DF0024D2997BFF7A0579D512006530990302F3
:1003EF00059880F8D2997BFF7A0579E6120065307F
:1003FF00990302059880F8D2997BFF7A06790B1240
:10040F00006530990302059880F8E5A06402707BBF
:10041F00D2997BFF7A0679181200653099FDE4F5C1
:10042F0022F52312084F0523E52370020522C394FA
:10043F0064E5226480948040EAE5A0603BD3E52721
:10044F009400E52664809480401BE52715277002F1
:10045F001526D2997BFF7A067950120065309903E1
:10046F0002059880F8D2997BFF7A0579E61200652C
:10047F0030990302059880F8D2997BFF7A06790BA1
:10048F0012006530990302059880F8E5A0607BD2D1
:10049F00997BFF7A0679621200653099FDE4F522A7
:1004AF00F52312084F0523E52370020522C3946438
:1004BF00E5226480948040EAE5A0603BD3E529946F
:1004CF0000E52864809480401BE5291529700215EA
:1004DF0028D2997BFF7A06799C1200653099030226
:1004EF00059880F8D2997BFF7A0579E6120065307E
:1004FF00990302059880F8D2997BFF7A06790B123F
:10050F00006530990302059880F8E5A0607BD299C9
:10051F007BFF7A0679B0C374049525F52EE49524F4
:10052F00F52DAE24AF257C007D0A1206FC8E2F8F91
:10053F00301200653099FDD2997BFF7A0679C8C3D6
:10054F0074039527F52EE49526F52DAE26AF277C5F
:10055F00007D141206FC8E2F8F301200653099FD2E
:10056F00D2997BFF7A0679E1C374059529F52EE4BC
:10057F009528F52DAE28AF297C007D1E1206FC8E26
:0F058F002F8F301200653099FD8508A002037F81
:1007A80002035FE493A3F8E493A34003F68001F205
:1007B80008DFF48029E493A3F85407240CC8C33352
:1007C800C4540F4420C8834004F456800146F6DF21
:1007D800E4800B0102040810204080900860E47E49
:1007E800019360BCA3FF543F30E509541FFEE49316
:1007F800A360010ECF54C025E060A840B8E493A3DD
:10080800FAE493A3F8E493A3C8C582C8CAC583CA07
:10081800F0A3C8C582C8CAC583CADFE9DEE780BEBF
:010863000094
:1006FC00EF8DF0A4A8F0CF8CF0A428CE8DF0A42E12
:02070C00FE22CB
:10000300E539242DF8E6053922782A300702782DC0
:10001300E475F00112076602070E2000EB7F2ED273
:10002300008018EF540F2490D43440D4FF30040BD5
:10003300EF24BFB41A0050032461FFE53A600215B0
:100043003A053DE53D7002053C30070D782AE4751D
:10005300F001120766EF0207540208287403D2075F
:100063008003E4C207F5398B2A8A2B892CE4F53AFD
:10007300F53CF53DE53A60077F2012003E80F575BB
:100083003BFFC201C200C202C203C205C206C208CC
:1000930012000CFF700D3007057F0012004FAF3DBB
:1000A300AE3C22B4255FC2D5C20412000CFF24D09B
:1000B300B40A00501A75F00A783A30D50508B6FF2D
:1000C3000106C6A426F620D5047002D20380D924E3
:1000D300CFB41A00EF5004C2E5D20402024FD2019A
:1000E30080C6D20080C0D20280BCD2D580BAD205ED
:1000F30080B47F2012003E2002077401B53A00400D
:10010300F1120003FF12003E020077D208D20680EC
:1001130095120003FB120003FA120003F94A4B7015
:100123000679207A037BFF20022EE53A602A7E00BF
:100133008E8275830012072760060EEE653B70F012
:10014300C2D5EBC0E0EAC0E0E9C0E0EE120296D00F
:10015300E0F9D0E0FAD0E0FB12070EFF60AAEBC093
:10016300E0EAC0E0E9C0E012003ED0E02401F9D0AB
:10017300E03400FAD0E0FBE53B0460DCD53BD980FA
:10018300877BFF7A027992D202809C791080027970
:1001930008C206C2088008D2D5790A8004790AC247
:1001A300D5E53B047002F53BE4FAFDFEFF120003C4
:1001B300FC7B08200113120003FD7B1030000A12A0
:1001C3000003FE120003FF7B20EC3382D592D5504F
:1001D30013C3E43000069FFFE49EFEE42001039D69
:1001E300FDE49CFCE4CBF8C201EC700CCFCECDCC8B
:1001F300E824F8F870F38017C3EF33FFEE33FEED16
:1002030033FDEC33FCEB33FB994002FB0FD8E9EBF6
:10021300300105F8D0E0C448B201C0E00AEC4D4E0D
:100223004F78207B0070C2EAB53B0040BCC0E012AF
:100233000298D0F0D0E0200104C4C0E0C4B201C0F1
:10024300F0120027D0F0D5F0EB0200771207760109
:100253001453018E5800E54C00E14201924F019A7C
:0F02630044019A4900FA4301A0550184460184E1
:100272004501844703405000E92D00ED2E01102B6B
:1002820000F123010E2003292A00A94800000108D9
:100292003F3F3F00790AA2D5200314300509B91067
:1002A200020404B9080104A2D52006025001042068
:1002B20002689202B53A005034C0E07F2030031940
:1002C2007F30A20272067205500F1202EFC202C202
:1002D20006C205C2087F30800F300503E9C0E01274
:1002E200003E300503D0E0F9D0E0B53ACC30051736
:1002F2007F30B9100C12003E7F583004077F78809F
:1003020003B9080312003E3002057F2D02003E7F32
:10031200202008F87F2B2006F322920280CF286E3D
:10032200756C6C2900D2011200033001F8C2017809
:100332003A30D50108F60200A92D5043495812005F
:10034200032403B405004001E490033B9312002F01
:0D035200743A12002FD203753A0402018E96
:10070E00BB010689828A83E0225002E722BBFE02E9
:09071E00E32289828A83E493221C
:10072700BB010CE58229F582E5833AF583E0225087
:1007370006E92582F8E622BBFE06E92582F8E222D1
:0D074700E58229F582E5833AF583E49322EB
:10075400BB010689828A83F0225002F722BBFE0184
:02076400F3227E
:10076600FAE6FB0808E6F925F0F618E6CA3AF62294
:10077600D083D082F8E4937012740193700DA3A312
:1007860093F8740193F5828883E473740293686026
:06079600EFA3A3A380DF26
:10082800EFB40A07740D120833740A309811A899A6
:10083800B8130CC2983098FDA899C298B811F63030
:0708480099FDC299F5992208
:00000001FF
