:030000000208846F
:0C088400787FE4F6D8FD75810B020800B7
:10086F00C28DC2A9758901758AAF758C3CD28C3047
:05087F008DFDC28C227A
:10080000C290D293E4F50AF50BD290C290E4F508B9
:10081000F50912086F0509E50970020508C394146B
:10082000E508940040EC050BE50B7002050AC39443
:1008300008E50A940040D2C290C293E4F50AF50B91
:10084000D290C290E4F508F50912086F0509E50990
:1008500070020508C39414E508940040EC050BE50C
:0F0860000B7002050AC39408E50A940040D222E7
:00000001FF
