:03000000020003F8
:0C000300787FE4F6D8FD75810A02004AFF
:0700C300010AFF020800FF23
:10008F00E4FFFED2A0A2909280A2919290A29292AF
:10009F0091A2939292A2949293A2959294A29692E5
:1000AF0095A297929620A0FD0FBF00010EEF640856
:0300BF004E70D0B0
:0100C200221B
:10000F0002008FE493A3F8E493A34003F68001F278
:10001F0008DFF48029E493A3F85407240CC8C333F2
:10002F00C4540F4420C8834004F456800146F6DFC1
:10003F00E4800B01020408102040809000C3E47E8E
:10004F00019360BCA3FF543F30E509541FFEE493B6
:10005F00A360010ECF54C025E060A840B8E493A37D
:10006F00FAE493A3F8E493A3C8C582C8CAC583CAA8
:10007F00F0A3C8C582C8CAC583CADFE9DEE780BE60
:0100CA000035
:00000001FF
