:0300000002008873
:0C008800787FE4F6D8FD758107020003C4
:10000300E4F5B07580FF2097FD20900C2091092026
:100013009206A28092B580EE30900C209109209236
:1000230006A28192B580DF20900C309109209206C0
:10003300A28292B580D030900C309109209206A212
:100043008392B580C120900C209109309206A2843E
:1000530092B580B230900C209109309206A285921D
:10006300B580A320900C309109309206A28692B5F8
:10007300809430900C309109309206A28792B5801B
:0500830085C2B580817B
:00000001FF
